{
  "_format": "hh-sol-artifact-1",
  "contractName": "Wallet",
  "sourceName": "contracts/wallet.sol",
  "abi": [
    {
      "stateMutability": "payable",
      "type": "fallback"
    },
    {
      "inputs": [],
      "name": "getBalance",
      "outputs": [
        {
          "internalType": "uint256",
          "name": "",
          "type": "uint256"
        }
      ],
      "stateMutability": "view",
      "type": "function"
    },
    {
      "inputs": [
        {
          "internalType": "address payable",
          "name": "_to",
          "type": "address"
        },
        {
          "internalType": "uint256",
          "name": "_amount",
          "type": "uint256"
        }
      ],
      "name": "retirer",
      "outputs": [],
      "stateMutability": "nonpayable",
      "type": "function"
    },
    {
      "stateMutability": "payable",
      "type": "receive"
    }
  ],
  "bytecode": "0x608060405234801561001057600080fd5b5061040a806100206000396000f3fe60806040526004361061002d5760003560e01c806312065fe0146100365780633ecf08cc1461006157610034565b3661003457005b005b34801561004257600080fd5b5061004b61008a565b604051610058919061020a565b60405180910390f35b34801561006d57600080fd5b50610088600480360381019061008391906102b4565b6100d0565b005b60008060003373ffffffffffffffffffffffffffffffffffffffff1673ffffffffffffffffffffffffffffffffffffffff16815260200190815260200160002054905090565b6000803373ffffffffffffffffffffffffffffffffffffffff1673ffffffffffffffffffffffffffffffffffffffff16815260200190815260200160002054811115610151576040517f08c379a000000000000000000000000000000000000000000000000000000000815260040161014890610351565b60405180910390fd5b806000803373ffffffffffffffffffffffffffffffffffffffff1673ffffffffffffffffffffffffffffffffffffffff168152602001908152602001600020600082825461019f91906103a0565b925050819055508173ffffffffffffffffffffffffffffffffffffffff166108fc829081150290604051600060405180830381858888f193505050501580156101ec573d6000803e3d6000fd5b505050565b6000819050919050565b610204816101f1565b82525050565b600060208201905061021f60008301846101fb565b92915050565b600080fd5b600073ffffffffffffffffffffffffffffffffffffffff82169050919050565b60006102558261022a565b9050919050565b6102658161024a565b811461027057600080fd5b50565b6000813590506102828161025c565b92915050565b610291816101f1565b811461029c57600080fd5b50565b6000813590506102ae81610288565b92915050565b600080604083850312156102cb576102ca610225565b5b60006102d985828601610273565b92505060206102ea8582860161029f565b9150509250929050565b600082825260208201905092915050565b7f536f6c646520496e737566666973616e74000000000000000000000000000000600082015250565b600061033b6011836102f4565b915061034682610305565b602082019050919050565b6000602082019050818103600083015261036a8161032e565b9050919050565b7f4e487b7100000000000000000000000000000000000000000000000000000000600052601160045260246000fd5b60006103ab826101f1565b91506103b6836101f1565b9250828210156103c9576103c8610371565b5b82820390509291505056fea264697066735822122016b65d0819e5a1d06b3c5ee90b7666ea9f641d8581ef4784602c8ca3d59a6ecb64736f6c63430008090033",
  "linkReferences": {},
  "deployedLinkReferences": {}
}